{
  "_format": "hh-sol-artifact-1",
  "contractName": "BlockchainMessenger",
  "sourceName": "contracts/BlockchainMessenger.sol",
  "abi": [
    {
      "inputs": [
        {
          "internalType": "string",
          "name": "initialMessage",
          "type": "string"
        }
      ],
      "stateMutability": "nonpayable",
      "type": "constructor"
    },
    {
      "anonymous": false,
      "inputs": [
        {
          "indexed": false,
          "internalType": "string",
          "name": "newMessage",
          "type": "string"
        },
        {
          "indexed": false,
          "internalType": "uint256",
          "name": "updateCount",
          "type": "uint256"
        }
      ],
      "name": "MessageUpdated",
      "type": "event"
    },
    {
      "inputs": [],
      "name": "getUpdateCount",
      "outputs": [
        {
          "internalType": "uint256",
          "name": "",
          "type": "uint256"
        }
      ],
      "stateMutability": "view",
      "type": "function"
    },
    {
      "inputs": [],
      "name": "owner",
      "outputs": [
        {
          "internalType": "address",
          "name": "",
          "type": "address"
        }
      ],
      "stateMutability": "view",
      "type": "function"
    },
    {
      "inputs": [],
      "name": "readMessage",
      "outputs": [
        {
          "internalType": "string",
          "name": "",
          "type": "string"
        }
      ],
      "stateMutability": "view",
      "type": "function"
    },
    {
      "inputs": [],
      "name": "updateCount",
      "outputs": [
        {
          "internalType": "uint256",
          "name": "",
          "type": "uint256"
        }
      ],
      "stateMutability": "view",
      "type": "function"
    },
    {
      "inputs": [
        {
          "internalType": "string",
          "name": "newMessage",
          "type": "string"
        }
      ],
      "name": "updateMessage",
      "outputs": [],
      "stateMutability": "nonpayable",
      "type": "function"
    }
  ],
  "bytecode": "0x60806040523480156200001157600080fd5b5060405162000f8e38038062000f8e83398181016040528101906200003791906200022c565b33600260006101000a81548173ffffffffffffffffffffffffffffffffffffffff021916908373ffffffffffffffffffffffffffffffffffffffff1602179055508060009081620000899190620004c8565b50600060018190555050620005af565b6000604051905090565b600080fd5b600080fd5b600080fd5b600080fd5b6000601f19601f8301169050919050565b7f4e487b7100000000000000000000000000000000000000000000000000000000600052604160045260246000fd5b6200010282620000b7565b810181811067ffffffffffffffff82111715620001245762000123620000c8565b5b80604052505050565b60006200013962000099565b9050620001478282620000f7565b919050565b600067ffffffffffffffff8211156200016a5762000169620000c8565b5b6200017582620000b7565b9050602081019050919050565b60005b83811015620001a257808201518184015260208101905062000185565b60008484015250505050565b6000620001c5620001bf846200014c565b6200012d565b905082815260208101848484011115620001e457620001e3620000b2565b5b620001f184828562000182565b509392505050565b600082601f830112620002115762000210620000ad565b5b815162000223848260208601620001ae565b91505092915050565b600060208284031215620002455762000244620000a3565b5b600082015167ffffffffffffffff811115620002665762000265620000a8565b5b6200027484828501620001f9565b91505092915050565b600081519050919050565b7f4e487b7100000000000000000000000000000000000000000000000000000000600052602260045260246000fd5b60006002820490506001821680620002d057607f821691505b602082108103620002e657620002e562000288565b5b50919050565b60008190508160005260206000209050919050565b60006020601f8301049050919050565b600082821b905092915050565b600060088302620003507fffffffffffffffffffffffffffffffffffffffffffffffffffffffffffffffff8262000311565b6200035c868362000311565b95508019841693508086168417925050509392505050565b6000819050919050565b6000819050919050565b6000620003a9620003a36200039d8462000374565b6200037e565b62000374565b9050919050565b6000819050919050565b620003c58362000388565b620003dd620003d482620003b0565b8484546200031e565b825550505050565b600090565b620003f4620003e5565b62000401818484620003ba565b505050565b5b8181101562000429576200041d600082620003ea565b60018101905062000407565b5050565b601f82111562000478576200044281620002ec565b6200044d8462000301565b810160208510156200045d578190505b620004756200046c8562000301565b83018262000406565b50505b505050565b600082821c905092915050565b60006200049d600019846008026200047d565b1980831691505092915050565b6000620004b883836200048a565b9150826002028217905092915050565b620004d3826200027d565b67ffffffffffffffff811115620004ef57620004ee620000c8565b5b620004fb8254620002b7565b620005088282856200042d565b600060209050601f8311600181146200054057600084156200052b578287015190505b620005378582620004aa565b865550620005a7565b601f1984166200055086620002ec565b60005b828110156200057a5784890151825560018201915060208501945060208101905062000553565b868310156200059a578489015162000596601f8916826200048a565b8355505b6001600288020188555050505b505050505050565b6109cf80620005bf6000396000f3fe608060405234801561001057600080fd5b50600436106100575760003560e01c8063031d5d011461005c5780631923be241461007a57806369b4ecc9146100965780638da5cb5b146100b4578063c52ed534146100d2575b600080fd5b6100646100f0565b604051610071919061033e565b60405180910390f35b610094600480360381019061008f91906104a9565b610182565b005b61009e610278565b6040516100ab919061050b565b60405180910390f35b6100bc61027e565b6040516100c99190610567565b60405180910390f35b6100da6102a4565b6040516100e7919061050b565b60405180910390f35b6060600080546100ff906105b1565b80601f016020809104026020016040519081016040528092919081815260200182805461012b906105b1565b80156101785780601f1061014d57610100808354040283529160200191610178565b820191906000526020600020905b81548152906001019060200180831161015b57829003601f168201915b5050505050905090565b600260009054906101000a900473ffffffffffffffffffffffffffffffffffffffff1673ffffffffffffffffffffffffffffffffffffffff163373ffffffffffffffffffffffffffffffffffffffff1614610212576040517f08c379a000000000000000000000000000000000000000000000000000000000815260040161020990610654565b60405180910390fd5b80600090816102219190610820565b506001600081548092919061023590610921565b91905055507f2eef4d7dc93b2cf1a6c84be8fb8cd11a6c37391d8e1e3477cf338caf0b73deb58160015460405161026d929190610969565b60405180910390a150565b60015481565b600260009054906101000a900473ffffffffffffffffffffffffffffffffffffffff1681565b6000600154905090565b600081519050919050565b600082825260208201905092915050565b60005b838110156102e85780820151818401526020810190506102cd565b60008484015250505050565b6000601f19601f8301169050919050565b6000610310826102ae565b61031a81856102b9565b935061032a8185602086016102ca565b610333816102f4565b840191505092915050565b600060208201905081810360008301526103588184610305565b905092915050565b6000604051905090565b600080fd5b600080fd5b600080fd5b600080fd5b7f4e487b7100000000000000000000000000000000000000000000000000000000600052604160045260246000fd5b6103b6826102f4565b810181811067ffffffffffffffff821117156103d5576103d461037e565b5b80604052505050565b60006103e8610360565b90506103f482826103ad565b919050565b600067ffffffffffffffff8211156104145761041361037e565b5b61041d826102f4565b9050602081019050919050565b82818337600083830152505050565b600061044c610447846103f9565b6103de565b90508281526020810184848401111561046857610467610379565b5b61047384828561042a565b509392505050565b600082601f8301126104905761048f610374565b5b81356104a0848260208601610439565b91505092915050565b6000602082840312156104bf576104be61036a565b5b600082013567ffffffffffffffff8111156104dd576104dc61036f565b5b6104e98482850161047b565b91505092915050565b6000819050919050565b610505816104f2565b82525050565b600060208201905061052060008301846104fc565b92915050565b600073ffffffffffffffffffffffffffffffffffffffff82169050919050565b600061055182610526565b9050919050565b61056181610546565b82525050565b600060208201905061057c6000830184610558565b92915050565b7f4e487b7100000000000000000000000000000000000000000000000000000000600052602260045260246000fd5b600060028204905060018216806105c957607f821691505b6020821081036105dc576105db610582565b5b50919050565b7f4f6e6c7920636f6e7472616374206f776e65722063616e2063616c6c2074686960008201527f732066756e6374696f6e00000000000000000000000000000000000000000000602082015250565b600061063e602a836102b9565b9150610649826105e2565b604082019050919050565b6000602082019050818103600083015261066d81610631565b9050919050565b60008190508160005260206000209050919050565b60006020601f8301049050919050565b600082821b905092915050565b6000600883026106d67fffffffffffffffffffffffffffffffffffffffffffffffffffffffffffffffff82610699565b6106e08683610699565b95508019841693508086168417925050509392505050565b6000819050919050565b600061071d610718610713846104f2565b6106f8565b6104f2565b9050919050565b6000819050919050565b61073783610702565b61074b61074382610724565b8484546106a6565b825550505050565b600090565b610760610753565b61076b81848461072e565b505050565b5b8181101561078f57610784600082610758565b600181019050610771565b5050565b601f8211156107d4576107a581610674565b6107ae84610689565b810160208510156107bd578190505b6107d16107c985610689565b830182610770565b50505b505050565b600082821c905092915050565b60006107f7600019846008026107d9565b1980831691505092915050565b600061081083836107e6565b9150826002028217905092915050565b610829826102ae565b67ffffffffffffffff8111156108425761084161037e565b5b61084c82546105b1565b610857828285610793565b600060209050601f83116001811461088a5760008415610878578287015190505b6108828582610804565b8655506108ea565b601f19841661089886610674565b60005b828110156108c05784890151825560018201915060208501945060208101905061089b565b868310156108dd57848901516108d9601f8916826107e6565b8355505b6001600288020188555050505b505050505050565b7f4e487b7100000000000000000000000000000000000000000000000000000000600052601160045260246000fd5b600061092c826104f2565b91507fffffffffffffffffffffffffffffffffffffffffffffffffffffffffffffffff820361095e5761095d6108f2565b5b600182019050919050565b600060408201905081810360008301526109838185610305565b905061099260208301846104fc565b939250505056fea26469706673582212206e8b3685b3962dcc94757fe7f1bf71f61b86b28ef37add1454a10c37c19b126564736f6c63430008130033",
  "linkReferences": {},
  "deployedLinkReferences": {}
}